S010000041746F44303830392E73726563DB
S113000010C022C021C020C01FC01EC01DC01CC003
S11300101BC01AC019C018C017C016C015C014C020
S113002013C011241FBECFE5D2E0DEBFCDBF10E068
S1130030A0E6B0E0E6E9F0E002C005900D92A0363B
S1130040B107D9F702D025C0DBCF8AE088BB87B3DC
S11300508B6087BB18BA85B7806885BF8BE88093AF
S11300600340E0E0F0EAC0E0D0E4A1E0B0E4C19AEB
S1130070C198B29B03C01082B299FDCFB29903C05C
S11300801082B29BFDCFC39A8C9180958883C398CC
S1090090EECFF894FFCF4F
S9030000FC
